{
  "contractName": "CrownsMarket",
  "abi": [
    {
      "inputs": [],
      "stateMutability": "nonpayable",
      "type": "constructor"
    },
    {
      "anonymous": false,
      "inputs": [
        {
          "indexed": true,
          "internalType": "address",
          "name": "owner",
          "type": "address"
        },
        {
          "indexed": true,
          "internalType": "address",
          "name": "approved",
          "type": "address"
        },
        {
          "indexed": true,
          "internalType": "uint256",
          "name": "tokenId",
          "type": "uint256"
        }
      ],
      "name": "Approval",
      "type": "event"
    },
    {
      "anonymous": false,
      "inputs": [
        {
          "indexed": true,
          "internalType": "address",
          "name": "owner",
          "type": "address"
        },
        {
          "indexed": true,
          "internalType": "address",
          "name": "operator",
          "type": "address"
        },
        {
          "indexed": false,
          "internalType": "bool",
          "name": "approved",
          "type": "bool"
        }
      ],
      "name": "ApprovalForAll",
      "type": "event"
    },
    {
      "anonymous": false,
      "inputs": [
        {
          "indexed": true,
          "internalType": "address",
          "name": "to",
          "type": "address"
        },
        {
          "indexed": false,
          "internalType": "uint256",
          "name": "crownIndex",
          "type": "uint256"
        }
      ],
      "name": "Assign",
      "type": "event"
    },
    {
      "anonymous": false,
      "inputs": [
        {
          "indexed": true,
          "internalType": "uint256",
          "name": "crownIndex",
          "type": "uint256"
        },
        {
          "indexed": false,
          "internalType": "uint256",
          "name": "value",
          "type": "uint256"
        },
        {
          "indexed": true,
          "internalType": "address",
          "name": "fromAddress",
          "type": "address"
        }
      ],
      "name": "CrownBidEntered",
      "type": "event"
    },
    {
      "anonymous": false,
      "inputs": [
        {
          "indexed": true,
          "internalType": "uint256",
          "name": "crownIndex",
          "type": "uint256"
        },
        {
          "indexed": false,
          "internalType": "uint256",
          "name": "value",
          "type": "uint256"
        },
        {
          "indexed": true,
          "internalType": "address",
          "name": "fromAddress",
          "type": "address"
        }
      ],
      "name": "CrownBidWithdrawn",
      "type": "event"
    },
    {
      "anonymous": false,
      "inputs": [
        {
          "indexed": true,
          "internalType": "uint256",
          "name": "crownIndex",
          "type": "uint256"
        },
        {
          "indexed": false,
          "internalType": "uint256",
          "name": "value",
          "type": "uint256"
        },
        {
          "indexed": true,
          "internalType": "address",
          "name": "fromAddress",
          "type": "address"
        },
        {
          "indexed": true,
          "internalType": "address",
          "name": "toAddress",
          "type": "address"
        }
      ],
      "name": "CrownBought",
      "type": "event"
    },
    {
      "anonymous": false,
      "inputs": [
        {
          "indexed": true,
          "internalType": "uint256",
          "name": "crownIndex",
          "type": "uint256"
        }
      ],
      "name": "CrownNoLongerForSale",
      "type": "event"
    },
    {
      "anonymous": false,
      "inputs": [
        {
          "indexed": true,
          "internalType": "uint256",
          "name": "crownIndex",
          "type": "uint256"
        },
        {
          "indexed": false,
          "internalType": "uint256",
          "name": "minValue",
          "type": "uint256"
        },
        {
          "indexed": true,
          "internalType": "address",
          "name": "toAddress",
          "type": "address"
        }
      ],
      "name": "CrownOffered",
      "type": "event"
    },
    {
      "anonymous": false,
      "inputs": [
        {
          "indexed": true,
          "internalType": "address",
          "name": "from",
          "type": "address"
        },
        {
          "indexed": true,
          "internalType": "address",
          "name": "to",
          "type": "address"
        },
        {
          "indexed": false,
          "internalType": "uint256",
          "name": "crownIndex",
          "type": "uint256"
        }
      ],
      "name": "CrownTransfer",
      "type": "event"
    },
    {
      "anonymous": false,
      "inputs": [
        {
          "indexed": true,
          "internalType": "uint256",
          "name": "crownIndex",
          "type": "uint256"
        },
        {
          "indexed": false,
          "internalType": "uint256",
          "name": "threshold",
          "type": "uint256"
        }
      ],
      "name": "InscriptionThresholdUpdate",
      "type": "event"
    },
    {
      "anonymous": false,
      "inputs": [
        {
          "indexed": true,
          "internalType": "address",
          "name": "previousOwner",
          "type": "address"
        },
        {
          "indexed": true,
          "internalType": "address",
          "name": "newOwner",
          "type": "address"
        }
      ],
      "name": "OwnershipTransferred",
      "type": "event"
    },
    {
      "anonymous": false,
      "inputs": [
        {
          "indexed": true,
          "internalType": "address",
          "name": "from",
          "type": "address"
        },
        {
          "indexed": true,
          "internalType": "address",
          "name": "to",
          "type": "address"
        },
        {
          "indexed": true,
          "internalType": "uint256",
          "name": "tokenId",
          "type": "uint256"
        }
      ],
      "name": "Transfer",
      "type": "event"
    },
    {
      "inputs": [
        {
          "internalType": "address",
          "name": "to",
          "type": "address"
        },
        {
          "internalType": "uint256",
          "name": "tokenId",
          "type": "uint256"
        }
      ],
      "name": "approve",
      "outputs": [],
      "stateMutability": "nonpayable",
      "type": "function"
    },
    {
      "inputs": [
        {
          "internalType": "address",
          "name": "owner",
          "type": "address"
        }
      ],
      "name": "balanceOf",
      "outputs": [
        {
          "internalType": "uint256",
          "name": "",
          "type": "uint256"
        }
      ],
      "stateMutability": "view",
      "type": "function"
    },
    {
      "inputs": [],
      "name": "baseTokenURI",
      "outputs": [
        {
          "internalType": "string",
          "name": "",
          "type": "string"
        }
      ],
      "stateMutability": "view",
      "type": "function"
    },
    {
      "inputs": [
        {
          "internalType": "uint256",
          "name": "",
          "type": "uint256"
        }
      ],
      "name": "crownBids",
      "outputs": [
        {
          "internalType": "bool",
          "name": "hasBid",
          "type": "bool"
        },
        {
          "internalType": "uint256",
          "name": "crownIndex",
          "type": "uint256"
        },
        {
          "internalType": "address",
          "name": "bidder",
          "type": "address"
        },
        {
          "internalType": "uint256",
          "name": "value",
          "type": "uint256"
        }
      ],
      "stateMutability": "view",
      "type": "function"
    },
    {
      "inputs": [
        {
          "internalType": "uint256",
          "name": "",
          "type": "uint256"
        },
        {
          "internalType": "uint256",
          "name": "",
          "type": "uint256"
        }
      ],
      "name": "crownTitles",
      "outputs": [
        {
          "internalType": "string",
          "name": "",
          "type": "string"
        }
      ],
      "stateMutability": "view",
      "type": "function"
    },
    {
      "inputs": [
        {
          "internalType": "uint256",
          "name": "",
          "type": "uint256"
        }
      ],
      "name": "crownsOfferedForSale",
      "outputs": [
        {
          "internalType": "bool",
          "name": "isForSale",
          "type": "bool"
        },
        {
          "internalType": "uint256",
          "name": "crownIndex",
          "type": "uint256"
        },
        {
          "internalType": "address",
          "name": "seller",
          "type": "address"
        },
        {
          "internalType": "uint256",
          "name": "minValue",
          "type": "uint256"
        },
        {
          "internalType": "address",
          "name": "onlySellTo",
          "type": "address"
        }
      ],
      "stateMutability": "view",
      "type": "function"
    },
    {
      "inputs": [
        {
          "internalType": "uint256",
          "name": "tokenId",
          "type": "uint256"
        }
      ],
      "name": "getApproved",
      "outputs": [
        {
          "internalType": "address",
          "name": "",
          "type": "address"
        }
      ],
      "stateMutability": "view",
      "type": "function"
    },
    {
      "inputs": [
        {
          "internalType": "uint256",
          "name": "",
          "type": "uint256"
        }
      ],
      "name": "inscriptionThreshold",
      "outputs": [
        {
          "internalType": "uint256",
          "name": "",
          "type": "uint256"
        }
      ],
      "stateMutability": "view",
      "type": "function"
    },
    {
      "inputs": [
        {
          "internalType": "address",
          "name": "owner",
          "type": "address"
        },
        {
          "internalType": "address",
          "name": "operator",
          "type": "address"
        }
      ],
      "name": "isApprovedForAll",
      "outputs": [
        {
          "internalType": "bool",
          "name": "",
          "type": "bool"
        }
      ],
      "stateMutability": "view",
      "type": "function"
    },
    {
      "inputs": [
        {
          "internalType": "uint256",
          "name": "",
          "type": "uint256"
        }
      ],
      "name": "lastPrices",
      "outputs": [
        {
          "internalType": "uint256",
          "name": "",
          "type": "uint256"
        }
      ],
      "stateMutability": "view",
      "type": "function"
    },
    {
      "inputs": [],
      "name": "name",
      "outputs": [
        {
          "internalType": "string",
          "name": "",
          "type": "string"
        }
      ],
      "stateMutability": "view",
      "type": "function"
    },
    {
      "inputs": [],
      "name": "owner",
      "outputs": [
        {
          "internalType": "address",
          "name": "",
          "type": "address"
        }
      ],
      "stateMutability": "view",
      "type": "function"
    },
    {
      "inputs": [
        {
          "internalType": "uint256",
          "name": "tokenId",
          "type": "uint256"
        }
      ],
      "name": "ownerOf",
      "outputs": [
        {
          "internalType": "address",
          "name": "",
          "type": "address"
        }
      ],
      "stateMutability": "view",
      "type": "function"
    },
    {
      "inputs": [
        {
          "internalType": "address",
          "name": "",
          "type": "address"
        }
      ],
      "name": "pendingWithdrawals",
      "outputs": [
        {
          "internalType": "uint256",
          "name": "",
          "type": "uint256"
        }
      ],
      "stateMutability": "view",
      "type": "function"
    },
    {
      "inputs": [],
      "name": "renounceOwnership",
      "outputs": [],
      "stateMutability": "nonpayable",
      "type": "function"
    },
    {
      "inputs": [
        {
          "internalType": "address",
          "name": "from",
          "type": "address"
        },
        {
          "internalType": "address",
          "name": "to",
          "type": "address"
        },
        {
          "internalType": "uint256",
          "name": "tokenId",
          "type": "uint256"
        }
      ],
      "name": "safeTransferFrom",
      "outputs": [],
      "stateMutability": "nonpayable",
      "type": "function"
    },
    {
      "inputs": [
        {
          "internalType": "address",
          "name": "from",
          "type": "address"
        },
        {
          "internalType": "address",
          "name": "to",
          "type": "address"
        },
        {
          "internalType": "uint256",
          "name": "tokenId",
          "type": "uint256"
        },
        {
          "internalType": "bytes",
          "name": "_data",
          "type": "bytes"
        }
      ],
      "name": "safeTransferFrom",
      "outputs": [],
      "stateMutability": "nonpayable",
      "type": "function"
    },
    {
      "inputs": [
        {
          "internalType": "address",
          "name": "operator",
          "type": "address"
        },
        {
          "internalType": "bool",
          "name": "approved",
          "type": "bool"
        }
      ],
      "name": "setApprovalForAll",
      "outputs": [],
      "stateMutability": "nonpayable",
      "type": "function"
    },
    {
      "inputs": [],
      "name": "standard",
      "outputs": [
        {
          "internalType": "string",
          "name": "",
          "type": "string"
        }
      ],
      "stateMutability": "view",
      "type": "function"
    },
    {
      "inputs": [
        {
          "internalType": "bytes4",
          "name": "interfaceId",
          "type": "bytes4"
        }
      ],
      "name": "supportsInterface",
      "outputs": [
        {
          "internalType": "bool",
          "name": "",
          "type": "bool"
        }
      ],
      "stateMutability": "view",
      "type": "function"
    },
    {
      "inputs": [],
      "name": "symbol",
      "outputs": [
        {
          "internalType": "string",
          "name": "",
          "type": "string"
        }
      ],
      "stateMutability": "view",
      "type": "function"
    },
    {
      "inputs": [
        {
          "internalType": "uint256",
          "name": "index",
          "type": "uint256"
        }
      ],
      "name": "tokenByIndex",
      "outputs": [
        {
          "internalType": "uint256",
          "name": "",
          "type": "uint256"
        }
      ],
      "stateMutability": "view",
      "type": "function"
    },
    {
      "inputs": [
        {
          "internalType": "address",
          "name": "owner",
          "type": "address"
        },
        {
          "internalType": "uint256",
          "name": "index",
          "type": "uint256"
        }
      ],
      "name": "tokenOfOwnerByIndex",
      "outputs": [
        {
          "internalType": "uint256",
          "name": "",
          "type": "uint256"
        }
      ],
      "stateMutability": "view",
      "type": "function"
    },
    {
      "inputs": [
        {
          "internalType": "uint256",
          "name": "tokenId",
          "type": "uint256"
        }
      ],
      "name": "tokenURI",
      "outputs": [
        {
          "internalType": "string",
          "name": "",
          "type": "string"
        }
      ],
      "stateMutability": "view",
      "type": "function"
    },
    {
      "inputs": [],
      "name": "totalSupply",
      "outputs": [
        {
          "internalType": "uint256",
          "name": "",
          "type": "uint256"
        }
      ],
      "stateMutability": "view",
      "type": "function"
    },
    {
      "inputs": [
        {
          "internalType": "address",
          "name": "from",
          "type": "address"
        },
        {
          "internalType": "address",
          "name": "to",
          "type": "address"
        },
        {
          "internalType": "uint256",
          "name": "tokenId",
          "type": "uint256"
        }
      ],
      "name": "transferFrom",
      "outputs": [],
      "stateMutability": "nonpayable",
      "type": "function"
    },
    {
      "inputs": [
        {
          "internalType": "address",
          "name": "newOwner",
          "type": "address"
        }
      ],
      "name": "transferOwnership",
      "outputs": [],
      "stateMutability": "nonpayable",
      "type": "function"
    },
    {
      "inputs": [
        {
          "internalType": "string",
          "name": "baseURI",
          "type": "string"
        }
      ],
      "name": "setBaseURI",
      "outputs": [],
      "stateMutability": "nonpayable",
      "type": "function"
    },
    {
      "inputs": [
        {
          "internalType": "uint256",
          "name": "crownIndex",
          "type": "uint256"
        },
        {
          "internalType": "uint256",
          "name": "minSalePriceInWei",
          "type": "uint256"
        }
      ],
      "name": "offerCrownForSale",
      "outputs": [],
      "stateMutability": "nonpayable",
      "type": "function"
    },
    {
      "inputs": [
        {
          "internalType": "uint256",
          "name": "crownIndex",
          "type": "uint256"
        },
        {
          "internalType": "uint256",
          "name": "minSalePriceInWei",
          "type": "uint256"
        },
        {
          "internalType": "address",
          "name": "toAddress",
          "type": "address"
        }
      ],
      "name": "offerCrownForSaleToAddress",
      "outputs": [],
      "stateMutability": "nonpayable",
      "type": "function"
    },
    {
      "inputs": [
        {
          "internalType": "uint256",
          "name": "crownIndex",
          "type": "uint256"
        }
      ],
      "name": "crownNoLongerForSale",
      "outputs": [],
      "stateMutability": "nonpayable",
      "type": "function"
    },
    {
      "inputs": [
        {
          "internalType": "uint256",
          "name": "crownIndex",
          "type": "uint256"
        },
        {
          "internalType": "string",
          "name": "title",
          "type": "string"
        }
      ],
      "name": "inscribe",
      "outputs": [],
      "stateMutability": "nonpayable",
      "type": "function"
    },
    {
      "inputs": [
        {
          "internalType": "uint256",
          "name": "crownIndex",
          "type": "uint256"
        }
      ],
      "name": "buyCrown",
      "outputs": [],
      "stateMutability": "payable",
      "type": "function"
    },
    {
      "inputs": [],
      "name": "withdraw",
      "outputs": [],
      "stateMutability": "nonpayable",
      "type": "function"
    },
    {
      "inputs": [
        {
          "internalType": "uint256",
          "name": "crownIndex",
          "type": "uint256"
        }
      ],
      "name": "enterBidForCrown",
      "outputs": [],
      "stateMutability": "payable",
      "type": "function"
    },
    {
      "inputs": [
        {
          "internalType": "uint256",
          "name": "crownIndex",
          "type": "uint256"
        },
        {
          "internalType": "uint256",
          "name": "minPrice",
          "type": "uint256"
        }
      ],
      "name": "acceptBidForCrown",
      "outputs": [],
      "stateMutability": "nonpayable",
      "type": "function"
    },
    {
      "inputs": [
        {
          "internalType": "uint256",
          "name": "crownIndex",
          "type": "uint256"
        }
      ],
      "name": "withdrawBidForCrown",
      "outputs": [],
      "stateMutability": "nonpayable",
      "type": "function"
    }
  ],
  "bytecode": "0x60806040526040518060400160405280600681526020017f43726f776e730000000000000000000000000000000000000000000000000000815250600b90805190602001906200005192919062001365565b503480156200005f57600080fd5b506040518060400160405280600681526020017f43726f776e7300000000000000000000000000000000000000000000000000008152506040518060400160405280600181526020017f4300000000000000000000000000000000000000000000000000000000000000815250620000ec620000e06200095a60201b60201c565b6200096260201b60201c565b81600190805190602001906200010492919062001365565b5080600290805190602001906200011d92919062001365565b50505060405180602001604052806000815250600c90805190602001906200014792919062001365565b506032600d60006101000a81548160ff021916908360ff1602179055506032600d60016101000a81548160ff021916908360ff1602179055506003600e819055506001600f819055506010600080815260200190815260200160002080600181540180825580915050600190039060005260206000200160006040518060400160405280600e81526020017f4b696e67206f6620537061646573000000000000000000000000000000000000815250909190915090805190602001906200021092919062001365565b50601060006001815260200190815260200160002080600181540180825580915050600190039060005260206000200160006040518060400160405280600d81526020017f4b696e67206f6620436c75627300000000000000000000000000000000000000815250909190915090805190602001906200029292919062001365565b50601060006002815260200190815260200160002080600181540180825580915050600190039060005260206000200160006040518060400160405280601081526020017f4b696e67206f66204469616d6f6e647300000000000000000000000000000000815250909190915090805190602001906200031492919062001365565b50601060006003815260200190815260200160002080600181540180825580915050600190039060005260206000200160006040518060400160405280600e81526020017f4b696e67206f6620486561727473000000000000000000000000000000000000815250909190915090805190602001906200039692919062001365565b50601060006004815260200190815260200160002080600181540180825580915050600190039060005260206000200160006040518060400160405280600f81526020017f517565656e206f66205370616465730000000000000000000000000000000000815250909190915090805190602001906200041892919062001365565b50601060006005815260200190815260200160002080600181540180825580915050600190039060005260206000200160006040518060400160405280600e81526020017f517565656e206f6620436c756273000000000000000000000000000000000000815250909190915090805190602001906200049a92919062001365565b50601060006006815260200190815260200160002080600181540180825580915050600190039060005260206000200160006040518060400160405280601181526020017f517565656e206f66204469616d6f6e6473000000000000000000000000000000815250909190915090805190602001906200051c92919062001365565b50601060006007815260200190815260200160002080600181540180825580915050600190039060005260206000200160006040518060400160405280600f81526020017f517565656e206f66204865617274730000000000000000000000000000000000815250909190915090805190602001906200059e92919062001365565b50601060006008815260200190815260200160002080600181540180825580915050600190039060005260206000200160006040518060400160405280600e81526020017f4a61636b206f6620537061646573000000000000000000000000000000000000815250909190915090805190602001906200062092919062001365565b50601060006009815260200190815260200160002080600181540180825580915050600190039060005260206000200160006040518060400160405280600d81526020017f4a61636b206f6620436c7562730000000000000000000000000000000000000081525090919091509080519060200190620006a292919062001365565b5060106000600a815260200190815260200160002080600181540180825580915050600190039060005260206000200160006040518060400160405280601081526020017f4a61636b206f66204469616d6f6e647300000000000000000000000000000000815250909190915090805190602001906200072492919062001365565b5060106000600b815260200190815260200160002080600181540180825580915050600190039060005260206000200160006040518060400160405280600e81526020017f4a61636b206f662048656172747300000000000000000000000000000000000081525090919091509080519060200190620007a692919062001365565b506000633b9aca009050620007c18162000a2660201b60201c565b60005b620007d462000b3c60201b60201c565b8110156200095257620007fd620007f062000b4960201b60201c565b8262000b7260201b60201c565b6040518060a001604052806000151581526020018281526020016200082762000b4960201b60201c565b73ffffffffffffffffffffffffffffffffffffffff16815260200160008152602001600073ffffffffffffffffffffffffffffffffffffffff168152506013600083815260200190815260200160002060008201518160000160006101000a81548160ff0219169083151502179055506020820151816001015560408201518160020160006101000a81548173ffffffffffffffffffffffffffffffffffffffff021916908373ffffffffffffffffffffffffffffffffffffffff1602179055506060820151816003015560808201518160040160006101000a81548173ffffffffffffffffffffffffffffffffffffffff021916908373ffffffffffffffffffffffffffffffffffffffff16021790555090505080806200094990620016e2565b915050620007c4565b50506200178e565b600033905090565b60008060009054906101000a900473ffffffffffffffffffffffffffffffffffffffff169050816000806101000a81548173ffffffffffffffffffffffffffffffffffffffff021916908373ffffffffffffffffffffffffffffffffffffffff1602179055508173ffffffffffffffffffffffffffffffffffffffff168173ffffffffffffffffffffffffffffffffffffffff167f8be0079c531659141344cd1fd0a4f28419497f9722a3daafe3b4186f6b6457e060405160405180910390a35050565b62000a366200095a60201b60201c565b73ffffffffffffffffffffffffffffffffffffffff1662000a5c62000b4960201b60201c565b73ffffffffffffffffffffffffffffffffffffffff161462000ab5576040517f08c379a000000000000000000000000000000000000000000000000000000000815260040162000aac90620015ba565b60405180910390fd5b60005b62000ac862000b3c60201b60201c565b81101562000b3857816011600083815260200190815260200160002081905550807f6827f11bf098c5702fd7007f66dad53443c2d7149165ce952ced34b19aeb68408360405162000b1a9190620015dc565b60405180910390a2808062000b2f90620016e2565b91505062000ab8565b5050565b6000600980549050905090565b60008060009054906101000a900473ffffffffffffffffffffffffffffffffffffffff16905090565b600073ffffffffffffffffffffffffffffffffffffffff168273ffffffffffffffffffffffffffffffffffffffff16141562000be5576040517f08c379a000000000000000000000000000000000000000000000000000000000815260040162000bdc9062001598565b60405180910390fd5b62000bf68162000d5860201b60201c565b1562000c39576040517f08c379a000000000000000000000000000000000000000000000000000000000815260040162000c309062001554565b60405180910390fd5b62000c4d6000838362000dc460201b60201c565b6001600460008473ffffffffffffffffffffffffffffffffffffffff1673ffffffffffffffffffffffffffffffffffffffff168152602001908152602001600020600082825462000c9f91906200160a565b92505081905550816003600083815260200190815260200160002060006101000a81548173ffffffffffffffffffffffffffffffffffffffff021916908373ffffffffffffffffffffffffffffffffffffffff160217905550808273ffffffffffffffffffffffffffffffffffffffff16600073ffffffffffffffffffffffffffffffffffffffff167fddf252ad1be2c89b69c2b068fc378daa952ba7f163c4a11628f55a4df523b3ef60405160405180910390a45050565b60008073ffffffffffffffffffffffffffffffffffffffff166003600084815260200190815260200160002060009054906101000a900473ffffffffffffffffffffffffffffffffffffffff1673ffffffffffffffffffffffffffffffffffffffff1614159050919050565b62000ddc83838362000f0b60201b620037251760201c565b600073ffffffffffffffffffffffffffffffffffffffff168373ffffffffffffffffffffffffffffffffffffffff16141562000e295762000e238162000f1060201b60201c565b62000e71565b8173ffffffffffffffffffffffffffffffffffffffff168373ffffffffffffffffffffffffffffffffffffffff161462000e705762000e6f838262000f5960201b60201c565b5b5b600073ffffffffffffffffffffffffffffffffffffffff168273ffffffffffffffffffffffffffffffffffffffff16141562000ebe5762000eb881620010d660201b60201c565b62000f06565b8273ffffffffffffffffffffffffffffffffffffffff168273ffffffffffffffffffffffffffffffffffffffff161462000f055762000f0482826200121e60201b60201c565b5b5b505050565b505050565b600980549050600a600083815260200190815260200160002081905550600981908060018154018082558091505060019003906000526020600020016000909190919091505550565b6000600162000f7384620012aa60201b62001cd61760201c565b62000f7f919062001667565b905060006008600084815260200190815260200160002054905081811462001065576000600760008673ffffffffffffffffffffffffffffffffffffffff1673ffffffffffffffffffffffffffffffffffffffff168152602001908152602001600020600084815260200190815260200160002054905080600760008773ffffffffffffffffffffffffffffffffffffffff1673ffffffffffffffffffffffffffffffffffffffff168152602001908152602001600020600084815260200190815260200160002081905550816008600083815260200190815260200160002081905550505b6008600084815260200190815260200160002060009055600760008573ffffffffffffffffffffffffffffffffffffffff1673ffffffffffffffffffffffffffffffffffffffff16815260200190815260200160002060008381526020019081526020016000206000905550505050565b60006001600980549050620010ec919062001667565b90506000600a600084815260200190815260200160002054905060006009838154811062001143577f4e487b7100000000000000000000000000000000000000000000000000000000600052603260045260246000fd5b9060005260206000200154905080600983815481106200118c577f4e487b7100000000000000000000000000000000000000000000000000000000600052603260045260246000fd5b906000526020600020018190555081600a600083815260200190815260200160002081905550600a600085815260200190815260200160002060009055600980548062001202577f4e487b7100000000000000000000000000000000000000000000000000000000600052603160045260246000fd5b6001900381819060005260206000200160009055905550505050565b60006200123683620012aa60201b62001cd61760201c565b905081600760008573ffffffffffffffffffffffffffffffffffffffff1673ffffffffffffffffffffffffffffffffffffffff168152602001908152602001600020600083815260200190815260200160002081905550806008600084815260200190815260200160002081905550505050565b60008073ffffffffffffffffffffffffffffffffffffffff168273ffffffffffffffffffffffffffffffffffffffff1614156200131e576040517f08c379a0000000000000000000000000000000000000000000000000000000008152600401620013159062001576565b60405180910390fd5b600460008373ffffffffffffffffffffffffffffffffffffffff1673ffffffffffffffffffffffffffffffffffffffff168152602001908152602001600020549050919050565b8280546200137390620016ac565b90600052602060002090601f016020900481019282620013975760008555620013e3565b82601f10620013b257805160ff1916838001178555620013e3565b82800160010185558215620013e3579182015b82811115620013e2578251825591602001919060010190620013c5565b5b509050620013f29190620013f6565b5090565b5b8082111562001411576000816000905550600101620013f7565b5090565b600062001424601c83620015f9565b91507f4552433732313a20746f6b656e20616c7265616479206d696e746564000000006000830152602082019050919050565b600062001466602a83620015f9565b91507f4552433732313a2062616c616e636520717565727920666f7220746865207a6560008301527f726f2061646472657373000000000000000000000000000000000000000000006020830152604082019050919050565b6000620014ce602083620015f9565b91507f4552433732313a206d696e7420746f20746865207a65726f20616464726573736000830152602082019050919050565b600062001510602083620015f9565b91507f4f776e61626c653a2063616c6c6572206973206e6f7420746865206f776e65726000830152602082019050919050565b6200154e81620016a2565b82525050565b600060208201905081810360008301526200156f8162001415565b9050919050565b60006020820190508181036000830152620015918162001457565b9050919050565b60006020820190508181036000830152620015b381620014bf565b9050919050565b60006020820190508181036000830152620015d58162001501565b9050919050565b6000602082019050620015f3600083018462001543565b92915050565b600082825260208201905092915050565b60006200161782620016a2565b91506200162483620016a2565b9250827fffffffffffffffffffffffffffffffffffffffffffffffffffffffffffffffff038211156200165c576200165b62001730565b5b828201905092915050565b60006200167482620016a2565b91506200168183620016a2565b92508282101562001697576200169662001730565b5b828203905092915050565b6000819050919050565b60006002820490506001821680620016c557607f821691505b60208210811415620016dc57620016db6200175f565b5b50919050565b6000620016ef82620016a2565b91507fffffffffffffffffffffffffffffffffffffffffffffffffffffffffffffffff82141562001725576200172462001730565b5b600182019050919050565b7f4e487b7100000000000000000000000000000000000000000000000000000000600052601160045260246000fd5b7f4e487b7100000000000000000000000000000000000000000000000000000000600052602260045260246000fd5b616109806200179e6000396000f3fe60806040526004361061021a5760003560e01c80636352211e11610123578063baa3f3f5116100ab578063d547cfb71161006f578063d547cfb714610802578063e985e9c51461082d578063ed619c201461086a578063f2fde38b14610893578063f3f43703146108bc5761021a565b8063baa3f3f51461070d578063c4cbabfb1461074a578063c87b56dd14610773578063cc27456e146107b0578063cc3f6bd8146107d95761021a565b806383313a22116100f257806383313a22146106285780638da5cb5b1461066557806395d89b4114610690578063a22cb465146106bb578063b88d4fde146106e45761021a565b80636352211e1461057b57806370a08231146105b8578063715018a6146105f55780638131796a1461060c5761021a565b806334a22088116101a657806343d8df2b1161017557806343d8df2b1461048d5780634f6ccce7146104a957806355f804b3146104e65780635a3b7e421461050f5780635c9db3a01461053a5761021a565b806334a22088146103e45780633ccfd60b1461040d5780633e1b0ba51461042457806342842e0e146104645761021a565b8063174ec34e116101ed578063174ec34e146102ed57806318160ddd1461031657806323b872dd146103415780632f745c591461036a5780633245dea5146103a75761021a565b806301ffc9a71461021f57806306fdde031461025c578063081812fc14610287578063095ea7b3146102c4575b600080fd5b34801561022b57600080fd5b5061024660048036038101906102419190614a2b565b6108f9565b6040516102539190615764565b60405180910390f35b34801561026857600080fd5b50610271610973565b60405161027e9190615817565b60405180910390f35b34801561029357600080fd5b506102ae60048036038101906102a99190614abe565b610a05565b6040516102bb91906156fd565b60405180910390f35b3480156102d057600080fd5b506102eb60048036038101906102e691906149ef565b610a8a565b005b3480156102f957600080fd5b50610314600480360381019061030f9190614abe565b610ba2565b005b34801561032257600080fd5b5061032b610dc1565b6040516103389190615c39565b60405180910390f35b34801561034d57600080fd5b50610368600480360381019061036391906148e9565b610dce565b005b34801561037657600080fd5b50610391600480360381019061038c91906149ef565b610e2e565b60405161039e9190615c39565b60405180910390f35b3480156103b357600080fd5b506103ce60048036038101906103c99190614abe565b610ed3565b6040516103db9190615c39565b60405180910390f35b3480156103f057600080fd5b5061040b60048036038101906104069190614b3b565b610eeb565b005b34801561041957600080fd5b50610422611559565b005b34801561043057600080fd5b5061044b60048036038101906104469190614abe565b6115ef565b60405161045b949392919061577f565b60405180910390f35b34801561047057600080fd5b5061048b600480360381019061048691906148e9565b61164c565b005b6104a760048036038101906104a29190614abe565b61166c565b005b3480156104b557600080fd5b506104d060048036038101906104cb9190614abe565b6119e6565b6040516104dd9190615c39565b60405180910390f35b3480156104f257600080fd5b5061050d60048036038101906105089190614a7d565b611a7d565b005b34801561051b57600080fd5b50610524611b13565b6040516105319190615817565b60405180910390f35b34801561054657600080fd5b50610561600480360381019061055c9190614abe565b611ba1565b6040516105729594939291906157c4565b60405180910390f35b34801561058757600080fd5b506105a2600480360381019061059d9190614abe565b611c24565b6040516105af91906156fd565b60405180910390f35b3480156105c457600080fd5b506105df60048036038101906105da9190614884565b611cd6565b6040516105ec9190615c39565b60405180910390f35b34801561060157600080fd5b5061060a611d8e565b005b61062660048036038101906106219190614abe565b611e16565b005b34801561063457600080fd5b5061064f600480360381019061064a9190614b3b565b612634565b60405161065c9190615817565b60405180910390f35b34801561067157600080fd5b5061067a6126ed565b60405161068791906156fd565b60405180910390f35b34801561069c57600080fd5b506106a5612716565b6040516106b29190615817565b60405180910390f35b3480156106c757600080fd5b506106e260048036038101906106dd91906149b3565b6127a8565b005b3480156106f057600080fd5b5061070b60048036038101906107069190614938565b612929565b005b34801561071957600080fd5b50610734600480360381019061072f9190614abe565b61298b565b6040516107419190615c39565b60405180910390f35b34801561075657600080fd5b50610771600480360381019061076c9190614b3b565b6129a3565b005b34801561077f57600080fd5b5061079a60048036038101906107959190614abe565b612be5565b6040516107a79190615817565b60405180910390f35b3480156107bc57600080fd5b506107d760048036038101906107d29190614abe565b612c8c565b005b3480156107e557600080fd5b5061080060048036038101906107fb9190614b77565b613015565b005b34801561080e57600080fd5b50610817613256565b6040516108249190615817565b60405180910390f35b34801561083957600080fd5b50610854600480360381019061084f91906148ad565b6132e4565b6040516108619190615764565b60405180910390f35b34801561087657600080fd5b50610891600480360381019061088c9190614ae7565b613378565b005b34801561089f57600080fd5b506108ba60048036038101906108b59190614884565b613615565b005b3480156108c857600080fd5b506108e360048036038101906108de9190614884565b61370d565b6040516108f09190615c39565b60405180910390f35b60007f780e9d63000000000000000000000000000000000000000000000000000000007bffffffffffffffffffffffffffffffffffffffffffffffffffffffff1916827bffffffffffffffffffffffffffffffffffffffffffffffffffffffff1916148061096c575061096b8261372a565b5b9050919050565b60606001805461098290615efe565b80601f01602080910402602001604051908101604052809291908181526020018280546109ae90615efe565b80156109fb5780601f106109d0576101008083540402835291602001916109fb565b820191906000526020600020905b8154815290600101906020018083116109de57829003601f168201915b5050505050905090565b6000610a108261380c565b610a4f576040517f08c379a0000000000000000000000000000000000000000000000000000000008152600401610a4690615a39565b60405180910390fd5b6005600083815260200190815260200160002060009054906101000a900473ffffffffffffffffffffffffffffffffffffffff169050919050565b6000610a9582611c24565b90508073ffffffffffffffffffffffffffffffffffffffff168373ffffffffffffffffffffffffffffffffffffffff161415610b06576040517f08c379a0000000000000000000000000000000000000000000000000000000008152600401610afd90615b39565b60405180910390fd5b8073ffffffffffffffffffffffffffffffffffffffff16610b25613878565b73ffffffffffffffffffffffffffffffffffffffff161480610b545750610b5381610b4e613878565b6132e4565b5b610b93576040517f08c379a0000000000000000000000000000000000000000000000000000000008152600401610b8a906159b9565b60405180910390fd5b610b9d8383613880565b505050565b610baa610dc1565b8110610beb576040517f08c379a0000000000000000000000000000000000000000000000000000000008152600401610be2906158f9565b60405180910390fd5b3373ffffffffffffffffffffffffffffffffffffffff16610c0b82611c24565b73ffffffffffffffffffffffffffffffffffffffff1614610c61576040517f08c379a0000000000000000000000000000000000000000000000000000000008152600401610c5890615ab9565b60405180910390fd5b6040518060a001604052806000151581526020018281526020013373ffffffffffffffffffffffffffffffffffffffff16815260200160008152602001600073ffffffffffffffffffffffffffffffffffffffff168152506013600083815260200190815260200160002060008201518160000160006101000a81548160ff0219169083151502179055506020820151816001015560408201518160020160006101000a81548173ffffffffffffffffffffffffffffffffffffffff021916908373ffffffffffffffffffffffffffffffffffffffff1602179055506060820151816003015560808201518160040160006101000a81548173ffffffffffffffffffffffffffffffffffffffff021916908373ffffffffffffffffffffffffffffffffffffffff160217905550905050807fd63ef8c8c22a434f080c90ffa8abc3b23e93f746ce239b35250ac77ae0794d1b60405160405180910390a250565b6000600980549050905090565b610ddf610dd9613878565b82613939565b610e1e576040517f08c379a0000000000000000000000000000000000000000000000000000000008152600401610e1590615b79565b60405180910390fd5b610e29838383613a17565b505050565b6000610e3983611cd6565b8210610e7a576040517f08c379a0000000000000000000000000000000000000000000000000000000008152600401610e7190615859565b60405180910390fd5b600760008473ffffffffffffffffffffffffffffffffffffffff1673ffffffffffffffffffffffffffffffffffffffff168152602001908152602001600020600083815260200190815260200160002054905092915050565b60126020528060005260406000206000915090505481565b610ef3610dc1565b8210610f34576040517f08c379a0000000000000000000000000000000000000000000000000000000008152600401610f2b906158f9565b60405180910390fd5b3373ffffffffffffffffffffffffffffffffffffffff16610f5483611c24565b73ffffffffffffffffffffffffffffffffffffffff1614610faa576040517f08c379a0000000000000000000000000000000000000000000000000000000008152600401610fa190615ab9565b60405180910390fd5b60003390506000601460008581526020019081526020016000206040518060800160405290816000820160009054906101000a900460ff16151515158152602001600182015481526020016002820160009054906101000a900473ffffffffffffffffffffffffffffffffffffffff1673ffffffffffffffffffffffffffffffffffffffff1673ffffffffffffffffffffffffffffffffffffffff1681526020016003820154815250509050600081606001511161109d576040517f08c379a000000000000000000000000000000000000000000000000000000000815260040161109490615b19565b60405180910390fd5b82816060015110156110e4576040517f08c379a00000000000000000000000000000000000000000000000000000000081526004016110db906158b9565b60405180910390fd5b600060048510156110f85760049050611110565b600885101561110a576008905061110f565b600c90505b5b60006064600f5484606001516111269190615dba565b6111309190615d89565b9050806015600061113f6126ed565b73ffffffffffffffffffffffffffffffffffffffff1673ffffffffffffffffffffffffffffffffffffffff16815260200190815260200160002060008282546111889190615d33565b9250508190555060008184606001516111a19190615e14565b905060006064600e5486606001516111b99190615dba565b6111c39190615d89565b905060006004856111d49190615e14565b90505b8481101561125e5781601560006111ed84611c24565b73ffffffffffffffffffffffffffffffffffffffff1673ffffffffffffffffffffffffffffffffffffffff16815260200190815260200160002060008282546112369190615d33565b9250508190555081836112499190615e14565b9250808061125690615f30565b9150506111d7565b5081601560008873ffffffffffffffffffffffffffffffffffffffff1673ffffffffffffffffffffffffffffffffffffffff16815260200190815260200160002060008282546112ae9190615d33565b925050819055508460600151601260008a8152602001908152602001600020819055506112e08686604001518a613a17565b6040518060a00160405280600015158152602001898152602001866040015173ffffffffffffffffffffffffffffffffffffffff16815260200160008152602001600073ffffffffffffffffffffffffffffffffffffffff16815250601360008a815260200190815260200160002060008201518160000160006101000a81548160ff0219169083151502179055506020820151816001015560408201518160020160006101000a81548173ffffffffffffffffffffffffffffffffffffffff021916908373ffffffffffffffffffffffffffffffffffffffff1602179055506060820151816003015560808201518160040160006101000a81548173ffffffffffffffffffffffffffffffffffffffff021916908373ffffffffffffffffffffffffffffffffffffffff1602179055509050506040518060800160405280600015158152602001898152602001600073ffffffffffffffffffffffffffffffffffffffff1681526020016000815250601460008a815260200190815260200160002060008201518160000160006101000a81548160ff0219169083151502179055506020820151816001015560408201518160020160006101000a81548173ffffffffffffffffffffffffffffffffffffffff021916908373ffffffffffffffffffffffffffffffffffffffff16021790555060608201518160030155905050846040015173ffffffffffffffffffffffffffffffffffffffff168673ffffffffffffffffffffffffffffffffffffffff16897ffb2eae89f86c977fa1f8573ffe741934865292f27477af19f82a640bc34eb18388606001516040516115479190615c39565b60405180910390a45050505050505050565b6000601560003373ffffffffffffffffffffffffffffffffffffffff1673ffffffffffffffffffffffffffffffffffffffff1681526020019081526020016000205490506000601560003373ffffffffffffffffffffffffffffffffffffffff1673ffffffffffffffffffffffffffffffffffffffff168152602001908152602001600020819055506115ec3382613c73565b50565b60146020528060005260406000206000915090508060000160009054906101000a900460ff16908060010154908060020160009054906101000a900473ffffffffffffffffffffffffffffffffffffffff16908060030154905084565b61166783838360405180602001604052806000815250612929565b505050565b611674610dc1565b81106116b5576040517f08c379a00000000000000000000000000000000000000000000000000000000081526004016116ac906158f9565b60405180910390fd5b3373ffffffffffffffffffffffffffffffffffffffff166116d582611c24565b73ffffffffffffffffffffffffffffffffffffffff16141561172c576040517f08c379a0000000000000000000000000000000000000000000000000000000008152600401611723906158d9565b60405180910390fd5b6000341161176f576040517f08c379a000000000000000000000000000000000000000000000000000000000815260040161176690615b19565b60405180910390fd5b6000601460008381526020019081526020016000206040518060800160405290816000820160009054906101000a900460ff16151515158152602001600182015481526020016002820160009054906101000a900473ffffffffffffffffffffffffffffffffffffffff1673ffffffffffffffffffffffffffffffffffffffff1673ffffffffffffffffffffffffffffffffffffffff16815260200160038201548152505090508060600151341161185c576040517f08c379a000000000000000000000000000000000000000000000000000000000815260040161185390615bb9565b60405180910390fd5b6000816060015111156118c857806060015160156000836040015173ffffffffffffffffffffffffffffffffffffffff1673ffffffffffffffffffffffffffffffffffffffff16815260200190815260200160002060008282546118c09190615d33565b925050819055505b60405180608001604052806001151581526020018381526020013373ffffffffffffffffffffffffffffffffffffffff168152602001348152506014600084815260200190815260200160002060008201518160000160006101000a81548160ff0219169083151502179055506020820151816001015560408201518160020160006101000a81548173ffffffffffffffffffffffffffffffffffffffff021916908373ffffffffffffffffffffffffffffffffffffffff160217905550606082015181600301559050503373ffffffffffffffffffffffffffffffffffffffff16827fdd78676e20fdec81c40554aea1183004eecd093073c659950f05b45d0392a460346040516119da9190615c39565b60405180910390a35050565b60006119f0610dc1565b8210611a31576040517f08c379a0000000000000000000000000000000000000000000000000000000008152600401611a2890615b99565b60405180910390fd5b60098281548110611a6b577f4e487b7100000000000000000000000000000000000000000000000000000000600052603260045260246000fd5b90600052602060002001549050919050565b611a85613878565b73ffffffffffffffffffffffffffffffffffffffff16611aa36126ed565b73ffffffffffffffffffffffffffffffffffffffff1614611af9576040517f08c379a0000000000000000000000000000000000000000000000000000000008152600401611af090615a79565b60405180910390fd5b80600c9080519060200190611b0f9291906146a8565b5050565b600b8054611b2090615efe565b80601f0160208091040260200160405190810160405280929190818152602001828054611b4c90615efe565b8015611b995780601f10611b6e57610100808354040283529160200191611b99565b820191906000526020600020905b815481529060010190602001808311611b7c57829003601f168201915b505050505081565b60136020528060005260406000206000915090508060000160009054906101000a900460ff16908060010154908060020160009054906101000a900473ffffffffffffffffffffffffffffffffffffffff16908060030154908060040160009054906101000a900473ffffffffffffffffffffffffffffffffffffffff16905085565b6000806003600084815260200190815260200160002060009054906101000a900473ffffffffffffffffffffffffffffffffffffffff169050600073ffffffffffffffffffffffffffffffffffffffff168173ffffffffffffffffffffffffffffffffffffffff161415611ccd576040517f08c379a0000000000000000000000000000000000000000000000000000000008152600401611cc4906159f9565b60405180910390fd5b80915050919050565b60008073ffffffffffffffffffffffffffffffffffffffff168273ffffffffffffffffffffffffffffffffffffffff161415611d47576040517f08c379a0000000000000000000000000000000000000000000000000000000008152600401611d3e906159d9565b60405180910390fd5b600460008373ffffffffffffffffffffffffffffffffffffffff1673ffffffffffffffffffffffffffffffffffffffff168152602001908152602001600020549050919050565b611d96613878565b73ffffffffffffffffffffffffffffffffffffffff16611db46126ed565b73ffffffffffffffffffffffffffffffffffffffff1614611e0a576040517f08c379a0000000000000000000000000000000000000000000000000000000008152600401611e0190615a79565b60405180910390fd5b611e146000613d24565b565b611e1e610dc1565b8110611e5f576040517f08c379a0000000000000000000000000000000000000000000000000000000008152600401611e56906158f9565b60405180910390fd5b3373ffffffffffffffffffffffffffffffffffffffff16611e7f82611c24565b73ffffffffffffffffffffffffffffffffffffffff161415611ed6576040517f08c379a0000000000000000000000000000000000000000000000000000000008152600401611ecd90615ab9565b60405180910390fd5b601260008281526020019081526020016000205434111580611f0a5750601160008281526020019081526020016000205434105b156121c0576000601360008381526020019081526020016000206040518060a00160405290816000820160009054906101000a900460ff16151515158152602001600182015481526020016002820160009054906101000a900473ffffffffffffffffffffffffffffffffffffffff1673ffffffffffffffffffffffffffffffffffffffff1673ffffffffffffffffffffffffffffffffffffffff168152602001600382015481526020016004820160009054906101000a900473ffffffffffffffffffffffffffffffffffffffff1673ffffffffffffffffffffffffffffffffffffffff1673ffffffffffffffffffffffffffffffffffffffff168152505090508060000151612050576040517f08c379a000000000000000000000000000000000000000000000000000000000815260040161204790615a19565b60405180910390fd5b600073ffffffffffffffffffffffffffffffffffffffff16816080015173ffffffffffffffffffffffffffffffffffffffff1614806120be57503373ffffffffffffffffffffffffffffffffffffffff16816080015173ffffffffffffffffffffffffffffffffffffffff16145b6120fd576040517f08c379a00000000000000000000000000000000000000000000000000000000081526004016120f490615839565b60405180910390fd5b8060600151341015612144576040517f08c379a000000000000000000000000000000000000000000000000000000000815260040161213b90615a59565b60405180910390fd5b61214d82611c24565b73ffffffffffffffffffffffffffffffffffffffff16816040015173ffffffffffffffffffffffffffffffffffffffff16146121be576040517f08c379a00000000000000000000000000000000000000000000000000000000081526004016121b590615bd9565b60405180910390fd5b505b60006121cb82611c24565b9050600060048310156121e157600490506121f9565b60088310156121f357600890506121f8565b600c90505b5b60006064600f543461220b9190615dba565b6122159190615d89565b905080601560006122246126ed565b73ffffffffffffffffffffffffffffffffffffffff1673ffffffffffffffffffffffffffffffffffffffff168152602001908152602001600020600082825461226d9190615d33565b92505081905550600081346122829190615e14565b905060006064600e54346122969190615dba565b6122a09190615d89565b905060006004856122b19190615e14565b90505b8481101561233b5781601560006122ca84611c24565b73ffffffffffffffffffffffffffffffffffffffff1673ffffffffffffffffffffffffffffffffffffffff16815260200190815260200160002060008282546123139190615d33565b9250508190555081836123269190615e14565b9250808061233390615f30565b9150506122b4565b5081601560008773ffffffffffffffffffffffffffffffffffffffff1673ffffffffffffffffffffffffffffffffffffffff168152602001908152602001600020600082825461238b9190615d33565b925050819055503460126000888152602001908152602001600020819055506123b5853388613a17565b6123be86610ba2565b3373ffffffffffffffffffffffffffffffffffffffff168573ffffffffffffffffffffffffffffffffffffffff16877ffb2eae89f86c977fa1f8573ffe741934865292f27477af19f82a640bc34eb1833460405161241c9190615c39565b60405180910390a46000601460008881526020019081526020016000206040518060800160405290816000820160009054906101000a900460ff16151515158152602001600182015481526020016002820160009054906101000a900473ffffffffffffffffffffffffffffffffffffffff1673ffffffffffffffffffffffffffffffffffffffff1673ffffffffffffffffffffffffffffffffffffffff16815260200160038201548152505090503373ffffffffffffffffffffffffffffffffffffffff16816040015173ffffffffffffffffffffffffffffffffffffffff16141561262b578060600151601560003373ffffffffffffffffffffffffffffffffffffffff1673ffffffffffffffffffffffffffffffffffffffff16815260200190815260200160002060008282546125569190615d33565b925050819055506040518060800160405280600015158152602001888152602001600073ffffffffffffffffffffffffffffffffffffffff16815260200160008152506014600089815260200190815260200160002060008201518160000160006101000a81548160ff0219169083151502179055506020820151816001015560408201518160020160006101000a81548173ffffffffffffffffffffffffffffffffffffffff021916908373ffffffffffffffffffffffffffffffffffffffff160217905550606082015181600301559050505b50505050505050565b6010602052816000526040600020818154811061265057600080fd5b9060005260206000200160009150915050805461266c90615efe565b80601f016020809104026020016040519081016040528092919081815260200182805461269890615efe565b80156126e55780601f106126ba576101008083540402835291602001916126e5565b820191906000526020600020905b8154815290600101906020018083116126c857829003601f168201915b505050505081565b60008060009054906101000a900473ffffffffffffffffffffffffffffffffffffffff16905090565b60606002805461272590615efe565b80601f016020809104026020016040519081016040528092919081815260200182805461275190615efe565b801561279e5780601f106127735761010080835404028352916020019161279e565b820191906000526020600020905b81548152906001019060200180831161278157829003601f168201915b5050505050905090565b6127b0613878565b73ffffffffffffffffffffffffffffffffffffffff168273ffffffffffffffffffffffffffffffffffffffff16141561281e576040517f08c379a000000000000000000000000000000000000000000000000000000000815260040161281590615939565b60405180910390fd5b806006600061282b613878565b73ffffffffffffffffffffffffffffffffffffffff1673ffffffffffffffffffffffffffffffffffffffff16815260200190815260200160002060008473ffffffffffffffffffffffffffffffffffffffff1673ffffffffffffffffffffffffffffffffffffffff16815260200190815260200160002060006101000a81548160ff0219169083151502179055508173ffffffffffffffffffffffffffffffffffffffff166128d8613878565b73ffffffffffffffffffffffffffffffffffffffff167f17307eab39ab6107e8899845ad3d59bd9653f200f220920489ca2b5937696c318360405161291d9190615764565b60405180910390a35050565b61293a612934613878565b83613939565b612979576040517f08c379a000000000000000000000000000000000000000000000000000000000815260040161297090615b79565b60405180910390fd5b61298584848484613de8565b50505050565b60116020528060005260406000206000915090505481565b6129ab610dc1565b82106129ec576040517f08c379a00000000000000000000000000000000000000000000000000000000081526004016129e3906158f9565b60405180910390fd5b3373ffffffffffffffffffffffffffffffffffffffff16612a0c83611c24565b73ffffffffffffffffffffffffffffffffffffffff1614612a62576040517f08c379a0000000000000000000000000000000000000000000000000000000008152600401612a5990615ab9565b60405180910390fd5b6040518060a001604052806001151581526020018381526020013373ffffffffffffffffffffffffffffffffffffffff168152602001828152602001600073ffffffffffffffffffffffffffffffffffffffff168152506013600084815260200190815260200160002060008201518160000160006101000a81548160ff0219169083151502179055506020820151816001015560408201518160020160006101000a81548173ffffffffffffffffffffffffffffffffffffffff021916908373ffffffffffffffffffffffffffffffffffffffff1602179055506060820151816003015560808201518160040160006101000a81548173ffffffffffffffffffffffffffffffffffffffff021916908373ffffffffffffffffffffffffffffffffffffffff160217905550905050600073ffffffffffffffffffffffffffffffffffffffff16827f2932fb43588a6b708648eb1d07ae9488bfee2abb4e444699f32ca68c7b68f01883604051612bd99190615c39565b60405180910390a35050565b6060612bf08261380c565b612c2f576040517f08c379a0000000000000000000000000000000000000000000000000000000008152600401612c2690615af9565b60405180910390fd5b6000612c39613e44565b90506000815111612c595760405180602001604052806000815250612c84565b80612c6384613e5b565b604051602001612c749291906156c4565b6040516020818303038152906040525b915050919050565b612c94610dc1565b8110612cd5576040517f08c379a0000000000000000000000000000000000000000000000000000000008152600401612ccc906158f9565b60405180910390fd5b3373ffffffffffffffffffffffffffffffffffffffff16612cf582611c24565b73ffffffffffffffffffffffffffffffffffffffff161415612d4c576040517f08c379a0000000000000000000000000000000000000000000000000000000008152600401612d43906158d9565b60405180910390fd5b600073ffffffffffffffffffffffffffffffffffffffff16612d6d82611c24565b73ffffffffffffffffffffffffffffffffffffffff161415612dc4576040517f08c379a0000000000000000000000000000000000000000000000000000000008152600401612dbb90615a99565b60405180910390fd5b6000601460008381526020019081526020016000206040518060800160405290816000820160009054906101000a900460ff16151515158152602001600182015481526020016002820160009054906101000a900473ffffffffffffffffffffffffffffffffffffffff1673ffffffffffffffffffffffffffffffffffffffff1673ffffffffffffffffffffffffffffffffffffffff16815260200160038201548152505090503373ffffffffffffffffffffffffffffffffffffffff16816040015173ffffffffffffffffffffffffffffffffffffffff1614612edd576040517f08c379a0000000000000000000000000000000000000000000000000000000008152600401612ed490615999565b60405180910390fd5b3373ffffffffffffffffffffffffffffffffffffffff16827fe1af70206cad0a260a10552f776008f30b8799db5d9c80807c8a64331bd641478360600151604051612f289190615c39565b60405180910390a36000816060015190506040518060800160405280600015158152602001848152602001600073ffffffffffffffffffffffffffffffffffffffff16815260200160008152506014600085815260200190815260200160002060008201518160000160006101000a81548160ff0219169083151502179055506020820151816001015560408201518160020160006101000a81548173ffffffffffffffffffffffffffffffffffffffff021916908373ffffffffffffffffffffffffffffffffffffffff160217905550606082015181600301559050506130103382613c73565b505050565b61301d610dc1565b831061305e576040517f08c379a0000000000000000000000000000000000000000000000000000000008152600401613055906158f9565b60405180910390fd5b3373ffffffffffffffffffffffffffffffffffffffff1661307e84611c24565b73ffffffffffffffffffffffffffffffffffffffff16146130d4576040517f08c379a00000000000000000000000000000000000000000000000000000000081526004016130cb90615ab9565b60405180910390fd5b6040518060a001604052806001151581526020018481526020013373ffffffffffffffffffffffffffffffffffffffff1681526020018381526020018273ffffffffffffffffffffffffffffffffffffffff168152506013600085815260200190815260200160002060008201518160000160006101000a81548160ff0219169083151502179055506020820151816001015560408201518160020160006101000a81548173ffffffffffffffffffffffffffffffffffffffff021916908373ffffffffffffffffffffffffffffffffffffffff1602179055506060820151816003015560808201518160040160006101000a81548173ffffffffffffffffffffffffffffffffffffffff021916908373ffffffffffffffffffffffffffffffffffffffff1602179055509050508073ffffffffffffffffffffffffffffffffffffffff16837f2932fb43588a6b708648eb1d07ae9488bfee2abb4e444699f32ca68c7b68f018846040516132499190615c39565b60405180910390a3505050565b600c805461326390615efe565b80601f016020809104026020016040519081016040528092919081815260200182805461328f90615efe565b80156132dc5780601f106132b1576101008083540402835291602001916132dc565b820191906000526020600020905b8154815290600101906020018083116132bf57829003601f168201915b505050505081565b6000600660008473ffffffffffffffffffffffffffffffffffffffff1673ffffffffffffffffffffffffffffffffffffffff16815260200190815260200160002060008373ffffffffffffffffffffffffffffffffffffffff1673ffffffffffffffffffffffffffffffffffffffff16815260200190815260200160002060009054906101000a900460ff16905092915050565b613380610dc1565b82106133c1576040517f08c379a00000000000000000000000000000000000000000000000000000000081526004016133b8906158f9565b60405180910390fd5b3373ffffffffffffffffffffffffffffffffffffffff166133e183611c24565b73ffffffffffffffffffffffffffffffffffffffff1614613437576040517f08c379a000000000000000000000000000000000000000000000000000000000815260040161342e90615ab9565b60405180910390fd5b6011600083815260200190815260200160002054601260008481526020019081526020016000205410156134a0576040517f08c379a000000000000000000000000000000000000000000000000000000000815260040161349790615bf9565b60405180910390fd5b6000819050600d60009054906101000a900460ff1660ff16815111156134fb576040517f08c379a00000000000000000000000000000000000000000000000000000000081526004016134f290615c19565b60405180910390fd5b600d60019054906101000a900460ff1660ff16601060008581526020019081526020016000208054905010613565576040517f08c379a000000000000000000000000000000000000000000000000000000000815260040161355c90615979565b60405180910390fd5b60106000848152602001908152602001600020829080600181540180825580915050600190039060005260206000200160009091909190915090805190602001906135b19291906146a8565b505b60126000848152602001908152602001600020546011600085815260200190815260200160002054116136105760026011600085815260200190815260200160002060008282546136049190615dba565b925050819055506135b3565b505050565b61361d613878565b73ffffffffffffffffffffffffffffffffffffffff1661363b6126ed565b73ffffffffffffffffffffffffffffffffffffffff1614613691576040517f08c379a000000000000000000000000000000000000000000000000000000000815260040161368890615a79565b60405180910390fd5b600073ffffffffffffffffffffffffffffffffffffffff168173ffffffffffffffffffffffffffffffffffffffff161415613701576040517f08c379a00000000000000000000000000000000000000000000000000000000081526004016136f890615899565b60405180910390fd5b61370a81613d24565b50565b60156020528060005260406000206000915090505481565b505050565b60007f80ac58cd000000000000000000000000000000000000000000000000000000007bffffffffffffffffffffffffffffffffffffffffffffffffffffffff1916827bffffffffffffffffffffffffffffffffffffffffffffffffffffffff191614806137f557507f5b5e139f000000000000000000000000000000000000000000000000000000007bffffffffffffffffffffffffffffffffffffffffffffffffffffffff1916827bffffffffffffffffffffffffffffffffffffffffffffffffffffffff1916145b80613805575061380482614008565b5b9050919050565b60008073ffffffffffffffffffffffffffffffffffffffff166003600084815260200190815260200160002060009054906101000a900473ffffffffffffffffffffffffffffffffffffffff1673ffffffffffffffffffffffffffffffffffffffff1614159050919050565b600033905090565b816005600083815260200190815260200160002060006101000a81548173ffffffffffffffffffffffffffffffffffffffff021916908373ffffffffffffffffffffffffffffffffffffffff160217905550808273ffffffffffffffffffffffffffffffffffffffff166138f383611c24565b73ffffffffffffffffffffffffffffffffffffffff167f8c5be1e5ebec7d5bd14f71427d1e84f3dd0314c0f7b2291e5b200ac8c7c3b92560405160405180910390a45050565b60006139448261380c565b613983576040517f08c379a000000000000000000000000000000000000000000000000000000000815260040161397a90615959565b60405180910390fd5b600061398e83611c24565b90508073ffffffffffffffffffffffffffffffffffffffff168473ffffffffffffffffffffffffffffffffffffffff1614806139fd57508373ffffffffffffffffffffffffffffffffffffffff166139e584610a05565b73ffffffffffffffffffffffffffffffffffffffff16145b80613a0e5750613a0d81856132e4565b5b91505092915050565b8273ffffffffffffffffffffffffffffffffffffffff16613a3782611c24565b73ffffffffffffffffffffffffffffffffffffffff1614613a8d576040517f08c379a0000000000000000000000000000000000000000000000000000000008152600401613a8490615ad9565b60405180910390fd5b600073ffffffffffffffffffffffffffffffffffffffff168273ffffffffffffffffffffffffffffffffffffffff161415613afd576040517f08c379a0000000000000000000000000000000000000000000000000000000008152600401613af490615919565b60405180910390fd5b613b08838383614072565b613b13600082613880565b6001600460008573ffffffffffffffffffffffffffffffffffffffff1673ffffffffffffffffffffffffffffffffffffffff1681526020019081526020016000206000828254613b639190615e14565b925050819055506001600460008473ffffffffffffffffffffffffffffffffffffffff1673ffffffffffffffffffffffffffffffffffffffff1681526020019081526020016000206000828254613bba9190615d33565b92505081905550816003600083815260200190815260200160002060006101000a81548173ffffffffffffffffffffffffffffffffffffffff021916908373ffffffffffffffffffffffffffffffffffffffff160217905550808273ffffffffffffffffffffffffffffffffffffffff168473ffffffffffffffffffffffffffffffffffffffff167fddf252ad1be2c89b69c2b068fc378daa952ba7f163c4a11628f55a4df523b3ef60405160405180910390a4505050565b60008273ffffffffffffffffffffffffffffffffffffffff1682604051613c99906156e8565b60006040518083038185875af1925050503d8060008114613cd6576040519150601f19603f3d011682016040523d82523d6000602084013e613cdb565b606091505b5050905080613d1f576040517f08c379a0000000000000000000000000000000000000000000000000000000008152600401613d1690615b59565b60405180910390fd5b505050565b60008060009054906101000a900473ffffffffffffffffffffffffffffffffffffffff169050816000806101000a81548173ffffffffffffffffffffffffffffffffffffffff021916908373ffffffffffffffffffffffffffffffffffffffff1602179055508173ffffffffffffffffffffffffffffffffffffffff168173ffffffffffffffffffffffffffffffffffffffff167f8be0079c531659141344cd1fd0a4f28419497f9722a3daafe3b4186f6b6457e060405160405180910390a35050565b613df3848484613a17565b613dff84848484614186565b613e3e576040517f08c379a0000000000000000000000000000000000000000000000000000000008152600401613e3590615879565b60405180910390fd5b50505050565b606060405180602001604052806000815250905090565b60606000821415613ea3576040518060400160405280600181526020017f30000000000000000000000000000000000000000000000000000000000000008152509050614003565b600082905060005b60008214613ed5578080613ebe90615f30565b915050600a82613ece9190615d89565b9150613eab565b60008167ffffffffffffffff811115613f17577f4e487b7100000000000000000000000000000000000000000000000000000000600052604160045260246000fd5b6040519080825280601f01601f191660200182016040528015613f495781602001600182028036833780820191505090505b5090505b60008514613ffc57600182613f629190615e14565b9150600a85613f719190615f79565b6030613f7d9190615d33565b60f81b818381518110613fb9577f4e487b7100000000000000000000000000000000000000000000000000000000600052603260045260246000fd5b60200101907effffffffffffffffffffffffffffffffffffffffffffffffffffffffffffff1916908160001a905350600a85613ff59190615d89565b9450613f4d565b8093505050505b919050565b60007f01ffc9a7000000000000000000000000000000000000000000000000000000007bffffffffffffffffffffffffffffffffffffffffffffffffffffffff1916827bffffffffffffffffffffffffffffffffffffffffffffffffffffffff1916149050919050565b61407d838383613725565b600073ffffffffffffffffffffffffffffffffffffffff168373ffffffffffffffffffffffffffffffffffffffff1614156140c0576140bb8161431d565b6140ff565b8173ffffffffffffffffffffffffffffffffffffffff168373ffffffffffffffffffffffffffffffffffffffff16146140fe576140fd8382614366565b5b5b600073ffffffffffffffffffffffffffffffffffffffff168273ffffffffffffffffffffffffffffffffffffffff1614156141425761413d816144d3565b614181565b8273ffffffffffffffffffffffffffffffffffffffff168273ffffffffffffffffffffffffffffffffffffffff16146141805761417f8282614616565b5b5b505050565b60006141a78473ffffffffffffffffffffffffffffffffffffffff16614695565b15614310578373ffffffffffffffffffffffffffffffffffffffff1663150b7a026141d0613878565b8786866040518563ffffffff1660e01b81526004016141f29493929190615718565b602060405180830381600087803b15801561420c57600080fd5b505af192505050801561423d57506040513d601f19601f8201168201806040525081019061423a9190614a54565b60015b6142c0573d806000811461426d576040519150601f19603f3d011682016040523d82523d6000602084013e614272565b606091505b506000815114156142b8576040517f08c379a00000000000000000000000000000000000000000000000000000000081526004016142af90615879565b60405180910390fd5b805181602001fd5b63150b7a0260e01b7bffffffffffffffffffffffffffffffffffffffffffffffffffffffff1916817bffffffffffffffffffffffffffffffffffffffffffffffffffffffff191614915050614315565b600190505b949350505050565b600980549050600a600083815260200190815260200160002081905550600981908060018154018082558091505060019003906000526020600020016000909190919091505550565b6000600161437384611cd6565b61437d9190615e14565b9050600060086000848152602001908152602001600020549050818114614462576000600760008673ffffffffffffffffffffffffffffffffffffffff1673ffffffffffffffffffffffffffffffffffffffff168152602001908152602001600020600084815260200190815260200160002054905080600760008773ffffffffffffffffffffffffffffffffffffffff1673ffffffffffffffffffffffffffffffffffffffff168152602001908152602001600020600084815260200190815260200160002081905550816008600083815260200190815260200160002081905550505b6008600084815260200190815260200160002060009055600760008573ffffffffffffffffffffffffffffffffffffffff1673ffffffffffffffffffffffffffffffffffffffff16815260200190815260200160002060008381526020019081526020016000206000905550505050565b600060016009805490506144e79190615e14565b90506000600a600084815260200190815260200160002054905060006009838154811061453d577f4e487b7100000000000000000000000000000000000000000000000000000000600052603260045260246000fd5b906000526020600020015490508060098381548110614585577f4e487b7100000000000000000000000000000000000000000000000000000000600052603260045260246000fd5b906000526020600020018190555081600a600083815260200190815260200160002081905550600a60008581526020019081526020016000206000905560098054806145fa577f4e487b7100000000000000000000000000000000000000000000000000000000600052603160045260246000fd5b6001900381819060005260206000200160009055905550505050565b600061462183611cd6565b905081600760008573ffffffffffffffffffffffffffffffffffffffff1673ffffffffffffffffffffffffffffffffffffffff168152602001908152602001600020600083815260200190815260200160002081905550806008600084815260200190815260200160002081905550505050565b600080823b905060008111915050919050565b8280546146b490615efe565b90600052602060002090601f0160209004810192826146d6576000855561471d565b82601f106146ef57805160ff191683800117855561471d565b8280016001018555821561471d579182015b8281111561471c578251825591602001919060010190614701565b5b50905061472a919061472e565b5090565b5b8082111561474757600081600090555060010161472f565b5090565b600061475e61475984615c85565b615c54565b90508281526020810184848401111561477657600080fd5b614781848285615ebc565b509392505050565b600061479c61479784615cb5565b615c54565b9050828152602081018484840111156147b457600080fd5b6147bf848285615ebc565b509392505050565b6000813590506147d681616077565b92915050565b6000813590506147eb8161608e565b92915050565b600081359050614800816160a5565b92915050565b600081519050614815816160a5565b92915050565b600082601f83011261482c57600080fd5b813561483c84826020860161474b565b91505092915050565b600082601f83011261485657600080fd5b8135614866848260208601614789565b91505092915050565b60008135905061487e816160bc565b92915050565b60006020828403121561489657600080fd5b60006148a4848285016147c7565b91505092915050565b600080604083850312156148c057600080fd5b60006148ce858286016147c7565b92505060206148df858286016147c7565b9150509250929050565b6000806000606084860312156148fe57600080fd5b600061490c868287016147c7565b935050602061491d868287016147c7565b925050604061492e8682870161486f565b9150509250925092565b6000806000806080858703121561494e57600080fd5b600061495c878288016147c7565b945050602061496d878288016147c7565b935050604061497e8782880161486f565b925050606085013567ffffffffffffffff81111561499b57600080fd5b6149a78782880161481b565b91505092959194509250565b600080604083850312156149c657600080fd5b60006149d4858286016147c7565b92505060206149e5858286016147dc565b9150509250929050565b60008060408385031215614a0257600080fd5b6000614a10858286016147c7565b9250506020614a218582860161486f565b9150509250929050565b600060208284031215614a3d57600080fd5b6000614a4b848285016147f1565b91505092915050565b600060208284031215614a6657600080fd5b6000614a7484828501614806565b91505092915050565b600060208284031215614a8f57600080fd5b600082013567ffffffffffffffff811115614aa957600080fd5b614ab584828501614845565b91505092915050565b600060208284031215614ad057600080fd5b6000614ade8482850161486f565b91505092915050565b60008060408385031215614afa57600080fd5b6000614b088582860161486f565b925050602083013567ffffffffffffffff811115614b2557600080fd5b614b3185828601614845565b9150509250929050565b60008060408385031215614b4e57600080fd5b6000614b5c8582860161486f565b9250506020614b6d8582860161486f565b9150509250929050565b600080600060608486031215614b8c57600080fd5b6000614b9a8682870161486f565b9350506020614bab8682870161486f565b9250506040614bbc868287016147c7565b9150509250925092565b614bcf81615e48565b82525050565b614bde81615e5a565b82525050565b6000614bef82615ce5565b614bf98185615cfb565b9350614c09818560208601615ecb565b614c1281616066565b840191505092915050565b6000614c2882615cf0565b614c328185615d17565b9350614c42818560208601615ecb565b614c4b81616066565b840191505092915050565b6000614c6182615cf0565b614c6b8185615d28565b9350614c7b818560208601615ecb565b80840191505092915050565b6000614c94601a83615d17565b91507f4e6f7420666f722073616c6520746f207468652073656e6465720000000000006000830152602082019050919050565b6000614cd4602b83615d17565b91507f455243373231456e756d657261626c653a206f776e657220696e646578206f7560008301527f74206f6620626f756e64730000000000000000000000000000000000000000006020830152604082019050919050565b6000614d3a603283615d17565b91507f4552433732313a207472616e7366657220746f206e6f6e20455243373231526560008301527f63656976657220696d706c656d656e74657200000000000000000000000000006020830152604082019050919050565b6000614da0602683615d17565b91507f4f776e61626c653a206e6577206f776e657220697320746865207a65726f206160008301527f64647265737300000000000000000000000000000000000000000000000000006020830152604082019050919050565b6000614e06600783615d17565b91507f4c6f7720626964000000000000000000000000000000000000000000000000006000830152602082019050919050565b6000614e46601083615d17565b91507f486f6c6465722063616e277420626964000000000000000000000000000000006000830152602082019050919050565b6000614e86600d83615d17565b91507f496e76616c696420696e646578000000000000000000000000000000000000006000830152602082019050919050565b6000614ec6602483615d17565b91507f4552433732313a207472616e7366657220746f20746865207a65726f2061646460008301527f72657373000000000000000000000000000000000000000000000000000000006020830152604082019050919050565b6000614f2c601983615d17565b91507f4552433732313a20617070726f766520746f2063616c6c6572000000000000006000830152602082019050919050565b6000614f6c602c83615d17565b91507f4552433732313a206f70657261746f7220717565727920666f72206e6f6e657860008301527f697374656e7420746f6b656e00000000000000000000000000000000000000006020830152604082019050919050565b6000614fd2600f83615d17565b91507f546f6f206d616e79207469746c657300000000000000000000000000000000006000830152602082019050919050565b6000615012601c83615d17565b91507f4f6e6c79206269646465722063616e20776974686472617720626964000000006000830152602082019050919050565b6000615052603883615d17565b91507f4552433732313a20617070726f76652063616c6c6572206973206e6f74206f7760008301527f6e6572206e6f7220617070726f76656420666f7220616c6c00000000000000006020830152604082019050919050565b60006150b8602a83615d17565b91507f4552433732313a2062616c616e636520717565727920666f7220746865207a6560008301527f726f2061646472657373000000000000000000000000000000000000000000006020830152604082019050919050565b600061511e602983615d17565b91507f4552433732313a206f776e657220717565727920666f72206e6f6e657869737460008301527f656e7420746f6b656e00000000000000000000000000000000000000000000006020830152604082019050919050565b6000615184600c83615d17565b91507f4e6f7420666f722073616c6500000000000000000000000000000000000000006000830152602082019050919050565b60006151c4602c83615d17565b91507f4552433732313a20617070726f76656420717565727920666f72206e6f6e657860008301527f697374656e7420746f6b656e00000000000000000000000000000000000000006020830152604082019050919050565b600061522a600983615d17565b91507f546f6f20636865617000000000000000000000000000000000000000000000006000830152602082019050919050565b600061526a602083615d17565b91507f4f776e61626c653a2063616c6c6572206973206e6f7420746865206f776e65726000830152602082019050919050565b60006152aa601083615d17565b91507f556e61737369676e65642063726f776e000000000000000000000000000000006000830152602082019050919050565b60006152ea600e83615d17565b91507f4e6f742074686520686f6c6465720000000000000000000000000000000000006000830152602082019050919050565b600061532a602983615d17565b91507f4552433732313a207472616e73666572206f6620746f6b656e2074686174206960008301527f73206e6f74206f776e00000000000000000000000000000000000000000000006020830152604082019050919050565b6000615390602f83615d17565b91507f4552433732314d657461646174613a2055524920717565727920666f72206e6f60008301527f6e6578697374656e7420746f6b656e00000000000000000000000000000000006020830152604082019050919050565b60006153f6600883615d17565b91507f5a65726f206269640000000000000000000000000000000000000000000000006000830152602082019050919050565b6000615436602183615d17565b91507f4552433732313a20617070726f76616c20746f2063757272656e74206f776e6560008301527f72000000000000000000000000000000000000000000000000000000000000006020830152604082019050919050565b600061549c600083615d0c565b9150600082019050919050565b60006154b6601083615d17565b91507f5472616e73666572206661696c65642e000000000000000000000000000000006000830152602082019050919050565b60006154f6603183615d17565b91507f4552433732313a207472616e736665722063616c6c6572206973206e6f74206f60008301527f776e6572206e6f7220617070726f7665640000000000000000000000000000006020830152604082019050919050565b600061555c602c83615d17565b91507f455243373231456e756d657261626c653a20676c6f62616c20696e646578206f60008301527f7574206f6620626f756e647300000000000000000000000000000000000000006020830152604082019050919050565b60006155c2601783615d17565b91507f4c6f77657220626964207468616e206578697374696e670000000000000000006000830152602082019050919050565b6000615602600c83615d17565b91507f416c726561647920736f6c6400000000000000000000000000000000000000006000830152602082019050919050565b6000615642601b83615d17565b91507f5075726368617365642070726963652077617320746f6f206c6f7700000000006000830152602082019050919050565b6000615682600e83615d17565b91507f5469746c6520746f6f206c6f6e670000000000000000000000000000000000006000830152602082019050919050565b6156be81615eb2565b82525050565b60006156d08285614c56565b91506156dc8284614c56565b91508190509392505050565b60006156f38261548f565b9150819050919050565b60006020820190506157126000830184614bc6565b92915050565b600060808201905061572d6000830187614bc6565b61573a6020830186614bc6565b61574760408301856156b5565b81810360608301526157598184614be4565b905095945050505050565b60006020820190506157796000830184614bd5565b92915050565b60006080820190506157946000830187614bd5565b6157a160208301866156b5565b6157ae6040830185614bc6565b6157bb60608301846156b5565b95945050505050565b600060a0820190506157d96000830188614bd5565b6157e660208301876156b5565b6157f36040830186614bc6565b61580060608301856156b5565b61580d6080830184614bc6565b9695505050505050565b600060208201905081810360008301526158318184614c1d565b905092915050565b6000602082019050818103600083015261585281614c87565b9050919050565b6000602082019050818103600083015261587281614cc7565b9050919050565b6000602082019050818103600083015261589281614d2d565b9050919050565b600060208201905081810360008301526158b281614d93565b9050919050565b600060208201905081810360008301526158d281614df9565b9050919050565b600060208201905081810360008301526158f281614e39565b9050919050565b6000602082019050818103600083015261591281614e79565b9050919050565b6000602082019050818103600083015261593281614eb9565b9050919050565b6000602082019050818103600083015261595281614f1f565b9050919050565b6000602082019050818103600083015261597281614f5f565b9050919050565b6000602082019050818103600083015261599281614fc5565b9050919050565b600060208201905081810360008301526159b281615005565b9050919050565b600060208201905081810360008301526159d281615045565b9050919050565b600060208201905081810360008301526159f2816150ab565b9050919050565b60006020820190508181036000830152615a1281615111565b9050919050565b60006020820190508181036000830152615a3281615177565b9050919050565b60006020820190508181036000830152615a52816151b7565b9050919050565b60006020820190508181036000830152615a728161521d565b9050919050565b60006020820190508181036000830152615a928161525d565b9050919050565b60006020820190508181036000830152615ab28161529d565b9050919050565b60006020820190508181036000830152615ad2816152dd565b9050919050565b60006020820190508181036000830152615af28161531d565b9050919050565b60006020820190508181036000830152615b1281615383565b9050919050565b60006020820190508181036000830152615b32816153e9565b9050919050565b60006020820190508181036000830152615b5281615429565b9050919050565b60006020820190508181036000830152615b72816154a9565b9050919050565b60006020820190508181036000830152615b92816154e9565b9050919050565b60006020820190508181036000830152615bb28161554f565b9050919050565b60006020820190508181036000830152615bd2816155b5565b9050919050565b60006020820190508181036000830152615bf2816155f5565b9050919050565b60006020820190508181036000830152615c1281615635565b9050919050565b60006020820190508181036000830152615c3281615675565b9050919050565b6000602082019050615c4e60008301846156b5565b92915050565b6000604051905081810181811067ffffffffffffffff82111715615c7b57615c7a616037565b5b8060405250919050565b600067ffffffffffffffff821115615ca057615c9f616037565b5b601f19601f8301169050602081019050919050565b600067ffffffffffffffff821115615cd057615ccf616037565b5b601f19601f8301169050602081019050919050565b600081519050919050565b600081519050919050565b600082825260208201905092915050565b600081905092915050565b600082825260208201905092915050565b600081905092915050565b6000615d3e82615eb2565b9150615d4983615eb2565b9250827fffffffffffffffffffffffffffffffffffffffffffffffffffffffffffffffff03821115615d7e57615d7d615faa565b5b828201905092915050565b6000615d9482615eb2565b9150615d9f83615eb2565b925082615daf57615dae615fd9565b5b828204905092915050565b6000615dc582615eb2565b9150615dd083615eb2565b9250817fffffffffffffffffffffffffffffffffffffffffffffffffffffffffffffffff0483118215151615615e0957615e08615faa565b5b828202905092915050565b6000615e1f82615eb2565b9150615e2a83615eb2565b925082821015615e3d57615e3c615faa565b5b828203905092915050565b6000615e5382615e92565b9050919050565b60008115159050919050565b60007fffffffff0000000000000000000000000000000000000000000000000000000082169050919050565b600073ffffffffffffffffffffffffffffffffffffffff82169050919050565b6000819050919050565b82818337600083830152505050565b60005b83811015615ee9578082015181840152602081019050615ece565b83811115615ef8576000848401525b50505050565b60006002820490506001821680615f1657607f821691505b60208210811415615f2a57615f29616008565b5b50919050565b6000615f3b82615eb2565b91507fffffffffffffffffffffffffffffffffffffffffffffffffffffffffffffffff821415615f6e57615f6d615faa565b5b600182019050919050565b6000615f8482615eb2565b9150615f8f83615eb2565b925082615f9f57615f9e615fd9565b5b828206905092915050565b7f4e487b7100000000000000000000000000000000000000000000000000000000600052601160045260246000fd5b7f4e487b7100000000000000000000000000000000000000000000000000000000600052601260045260246000fd5b7f4e487b7100000000000000000000000000000000000000000000000000000000600052602260045260246000fd5b7f4e487b7100000000000000000000000000000000000000000000000000000000600052604160045260246000fd5b6000601f19601f8301169050919050565b61608081615e48565b811461608b57600080fd5b50565b61609781615e5a565b81146160a257600080fd5b50565b6160ae81615e66565b81146160b957600080fd5b50565b6160c581615eb2565b81146160d057600080fd5b5056fea26469706673582212202af252ba0f3a27ff9ab27e8e048a623a4bfba898f469a23bed8f27e53871d0b864736f6c63430008000033",
  "immutableReferences": {},
  "source": "// SPDX-License-Identifier: MIT\npragma solidity ^0.8.0;\n\nimport \"@openzeppelin/contracts/access/Ownable.sol\";\nimport \"@openzeppelin/contracts/token/ERC721/extensions/ERC721Enumerable.sol\";\n\ncontract CrownsMarket is Ownable, ERC721Enumerable {\n    string public standard = 'Crowns';\n\tstring public baseTokenURI;\n\n\tuint8 private maxTitleLength;\n\tuint8 private maxTitles;\n\n\tuint256 private crownSharePct;\n\tuint256 private jokerSharePct;\n\n\tmapping (uint => string[]) public crownTitles;\n\tmapping (uint => uint256) public inscriptionThreshold;\n\tmapping (uint => uint256) public lastPrices;\n\n    struct Offer {\n        bool isForSale;\n        uint crownIndex;\n        address seller;\n        uint minValue; \n        address onlySellTo;\n    }\n\n    struct Bid {\n        bool hasBid;\n        uint crownIndex;\n        address bidder;\n        uint value;\n    }\n\n    mapping (uint => Offer) public crownsOfferedForSale;\n    mapping (uint => Bid) public crownBids;\n    mapping (address => uint) public pendingWithdrawals;\n\n    event Assign(address indexed to, uint crownIndex);\n    event CrownTransfer(address indexed from, address indexed to, uint crownIndex);\n    event CrownOffered(uint indexed crownIndex, uint minValue, address indexed toAddress);\n    event CrownBidEntered(uint indexed crownIndex, uint value, address indexed fromAddress);\n    event CrownBidWithdrawn(uint indexed crownIndex, uint value, address indexed fromAddress);\n    event CrownBought(uint indexed crownIndex, uint value, address indexed fromAddress, address indexed toAddress);\n    event CrownNoLongerForSale(uint indexed crownIndex);\n\tevent InscriptionThresholdUpdate(uint indexed crownIndex, uint256 threshold);\n\n    constructor() ERC721(\"Crowns\", \"C\") {\n\t\tbaseTokenURI = \"\";\n\n\t\tmaxTitleLength = 50;\n\t\tmaxTitles = 50;\n\t\tcrownSharePct = 3;\n\t\tjokerSharePct = 1;\n\n\t\tcrownTitles[0].push('King of Spades');\n\t\tcrownTitles[1].push('King of Clubs');\n\t\tcrownTitles[2].push('King of Diamonds');\n\t\tcrownTitles[3].push('King of Hearts');\n\t\tcrownTitles[4].push('Queen of Spades');\n\t\tcrownTitles[5].push('Queen of Clubs');\n\t\tcrownTitles[6].push('Queen of Diamonds');\n\t\tcrownTitles[7].push('Queen of Hearts');\n\t\tcrownTitles[8].push('Jack of Spades');\n\t\tcrownTitles[9].push('Jack of Clubs');\n\t\tcrownTitles[10].push('Jack of Diamonds');\n\t\tcrownTitles[11].push('Jack of Hearts');\n\n        uint256 threshold = 1000000000;\n\t\tsetInitialInscriptionThreshold(threshold);\n\t\tfor (uint i = 0; i < totalSupply(); i++) {\n\t\t\t_mint(owner(), i);\n            crownsOfferedForSale[i] = Offer(false, i, owner(), 0, address(0));\n        }\n    }\n\n    function setBaseURI(string memory baseURI) public onlyOwner {\n        baseTokenURI = baseURI;\n    }\n\n\tfunction setInitialInscriptionThreshold(uint256 threshold) private onlyOwner {\n\t\tfor (uint i = 0; i < totalSupply(); i++) {\n\t\t\tinscriptionThreshold[i] = threshold;\n\t\t\temit InscriptionThresholdUpdate(i, threshold);\n\t\t}\n\t}\n\n    function offerCrownForSale(uint crownIndex, uint minSalePriceInWei) public {\n        require(crownIndex < totalSupply(), \"Invalid index\");\n        require(ownerOf(crownIndex) == msg.sender, \"Not the holder\");\n        crownsOfferedForSale[crownIndex] = Offer(true, crownIndex, msg.sender, minSalePriceInWei, address(0));\n        emit CrownOffered(crownIndex, minSalePriceInWei, address(0));\n    }\n\n    function offerCrownForSaleToAddress(uint crownIndex, uint minSalePriceInWei, address toAddress) public {\n        require(crownIndex < totalSupply(), \"Invalid index\");\n        require(ownerOf(crownIndex) == msg.sender, \"Not the holder\");\n        crownsOfferedForSale[crownIndex] = Offer(true, crownIndex, msg.sender, minSalePriceInWei, toAddress);\n        emit CrownOffered(crownIndex, minSalePriceInWei, toAddress);\n    }\n\n\tfunction crownNoLongerForSale(uint crownIndex) public {\n        require(crownIndex < totalSupply(), \"Invalid index\");\n        require(ownerOf(crownIndex) == msg.sender, \"Not the holder\");\n        crownsOfferedForSale[crownIndex] = Offer(false, crownIndex, msg.sender, 0, address(0));\n        emit CrownNoLongerForSale(crownIndex);\n    }\n\n    // Add an inscripton. Inscription price doubles.\n\tfunction inscribe(uint crownIndex, string memory title) public {\n        require(crownIndex < totalSupply(), \"Invalid index\");\n        require(ownerOf(crownIndex) == msg.sender, \"Not the holder\");\n\t\trequire(lastPrices[crownIndex] >= inscriptionThreshold[crownIndex], \"Purchased price was too low\");\n\t\tbytes memory bs = bytes(title);\n\t\trequire(bs.length <= maxTitleLength, \"Title too long\");\n\t\trequire(crownTitles[crownIndex].length < maxTitles, \"Too many titles\");\n\t\tcrownTitles[crownIndex].push(title);\n\t\twhile (inscriptionThreshold[crownIndex] <= lastPrices[crownIndex]) {\n\t\t\tinscriptionThreshold[crownIndex] *= 2;\n\t\t}\n\t}\n\n    // Try to buy a crown. If the price offered is high enough the holder cannot refuse.\n    function buyCrown(uint crownIndex) payable public {\n        require(crownIndex < totalSupply(), \"Invalid index\");\n        require(ownerOf(crownIndex) != msg.sender, \"Not the holder\");\n        \n        // If the price is higher than last purchase price and inscription price, holder cannot refuse.\n        if (msg.value <= lastPrices[crownIndex] || msg.value < inscriptionThreshold[crownIndex]) {\n            Offer memory offer = crownsOfferedForSale[crownIndex];\n\t\t\trequire(offer.isForSale, \"Not for sale\");\n\t\t\trequire(offer.onlySellTo == address(0) || offer.onlySellTo == msg.sender, \"Not for sale to the sender\");\n\t\t\trequire(msg.value >= offer.minValue, \"Too cheap\");\n\t\t\trequire(offer.seller == ownerOf(crownIndex), \"Already sold\");\n        }\n\n        address seller = ownerOf(crownIndex);\n\n\t\tuint crownType;\n\t\tif (crownIndex < 4) {\n\t\t\tcrownType = 4;\n\t\t} else if (crownIndex < 8) {\n\t\t\tcrownType = 8;\n\t\t} else {\n\t\t\tcrownType = 12;\n\t\t}\n\n\t\t// Joker cut.\n\t\tuint jokerShare = msg.value * jokerSharePct / 100;\n\t\tpendingWithdrawals[owner()] += jokerShare;\n\t\tuint remaining = msg.value - jokerShare;\n\t\t\n\t\t// Crown cut.\n\t\tuint crownShare = msg.value * crownSharePct / 100;\n\t\tfor (uint i = crownType - 4; i < crownType; i++) {\n\t\t\tpendingWithdrawals[ownerOf(i)] += crownShare;\n\t\t\tremaining -= crownShare;\n\t\t}\n\t\tpendingWithdrawals[seller] += remaining;\n\n\t\tlastPrices[crownIndex] = msg.value;\n\n\t\t_transfer(seller, msg.sender, crownIndex);\n\n        crownNoLongerForSale(crownIndex);\n\n        emit CrownBought(crownIndex, msg.value, seller, msg.sender);\n\n        // Check for the case where there is a bid from the new owner and refund it.\n        // Any other bid can stay in place.\n        Bid memory bid = crownBids[crownIndex];\n        if (bid.bidder == msg.sender) {\n            // Kill bid and refund value\n            pendingWithdrawals[msg.sender] += bid.value;\n            crownBids[crownIndex] = Bid(false, crownIndex, address(0), 0);\n        }\n    }\n\n    function withdraw() public {\n        uint amount = pendingWithdrawals[msg.sender];\n        // Remember to zero the pending refund before\n        // sending to prevent re-entrancy attacks\n        pendingWithdrawals[msg.sender] = 0;\n\t\t_withdraw(msg.sender, amount);\n    }\n\n\tfunction _withdraw(address _address, uint256 _amount) private {\n\t\t(bool success, ) = _address.call{value: _amount}(\"\");\n\t\trequire(success, \"Transfer failed.\");\n\t}\n\n    function enterBidForCrown(uint crownIndex) payable public {\n        require(crownIndex < totalSupply(), \"Invalid index\");\n        require(ownerOf(crownIndex) != msg.sender, \"Holder can't bid\");\n\t\trequire(msg.value > 0, \"Zero bid\");\n        Bid memory existing = crownBids[crownIndex];\n\t\trequire(msg.value > existing.value, \"Lower bid than existing\");\n        if (existing.value > 0) {\n            // Refund the failing bid\n            pendingWithdrawals[existing.bidder] += existing.value;\n        }\n        crownBids[crownIndex] = Bid(true, crownIndex, msg.sender, msg.value);\n        emit CrownBidEntered(crownIndex, msg.value, msg.sender);\n    }\n\n    function acceptBidForCrown(uint crownIndex, uint minPrice) public {\n        require(crownIndex < totalSupply(), \"Invalid index\");\n        require(ownerOf(crownIndex) == msg.sender, \"Not the holder\");\n        address seller = msg.sender;\n        Bid memory bid = crownBids[crownIndex];\n\t\trequire(bid.value > 0, \"Zero bid\");\n\t\t// In case the top bidder withdrew.\n\t\trequire(bid.value >= minPrice, \"Low bid\");\n\n\t\tuint crownType;\n\t\tif (crownIndex < 4) {\n\t\t\tcrownType = 4;\n\t\t} else if (crownIndex < 8) {\n\t\t\tcrownType = 8;\n\t\t} else {\n\t\t\tcrownType = 12;\n\t\t}\n\n\t\t// Joker cut.\n\t\tuint jokerShare = bid.value * jokerSharePct / 100;\n\t\tpendingWithdrawals[owner()] += jokerShare;\n\t\tuint remaining = bid.value - jokerShare;\n\t\t\n\t\t// Crown cut.\n\t\tuint crownShare = bid.value * crownSharePct / 100;\n\t\tfor (uint i = crownType - 4; i < crownType; i++) {\n\t\t\tpendingWithdrawals[ownerOf(i)] += crownShare;\n\t\t\tremaining -= crownShare;\n\t\t}\n\t\tpendingWithdrawals[seller] += remaining;\n\n\t\tlastPrices[crownIndex] = bid.value;\n\n\t\t_transfer(seller, bid.bidder, crownIndex);\n\n        crownsOfferedForSale[crownIndex] = Offer(false, crownIndex, bid.bidder, 0, address(0));\n\n        crownBids[crownIndex] = Bid(false, crownIndex, address(0), 0);\n        emit CrownBought(crownIndex, bid.value, seller, bid.bidder);\n    }\n\n    function withdrawBidForCrown(uint crownIndex) public {\n        require(crownIndex < totalSupply(), \"Invalid index\");\n        require(ownerOf(crownIndex) != msg.sender, \"Holder can't bid\");\n        require(ownerOf(crownIndex) != address(0), \"Unassigned crown\");\n        Bid memory bid = crownBids[crownIndex];\n\t\trequire(bid.bidder == msg.sender, \"Only bidder can withdraw bid\");\n        emit CrownBidWithdrawn(crownIndex, bid.value, msg.sender);\n        uint amount = bid.value;\n        crownBids[crownIndex] = Bid(false, crownIndex, address(0), 0);\n        // Refund the bid money\n\t\t_withdraw(msg.sender, amount);\n    }\n}\n\n",
  "sourcePath": "/Users/joseph/Development/crowns/contracts/CrownsMarket.sol",
  "compiler": {
    "name": "solc",
    "version": "0.8.0+commit.c7dfd78e.Emscripten.clang"
  },
  "schemaVersion": "3.4.3",
  "updatedAt": "2021-09-08T06:50:06.313Z",
  "devdoc": {
    "kind": "dev",
    "methods": {
      "approve(address,uint256)": {
        "details": "See {IERC721-approve}."
      },
      "balanceOf(address)": {
        "details": "See {IERC721-balanceOf}."
      },
      "getApproved(uint256)": {
        "details": "See {IERC721-getApproved}."
      },
      "isApprovedForAll(address,address)": {
        "details": "See {IERC721-isApprovedForAll}."
      },
      "name()": {
        "details": "See {IERC721Metadata-name}."
      },
      "owner()": {
        "details": "Returns the address of the current owner."
      },
      "ownerOf(uint256)": {
        "details": "See {IERC721-ownerOf}."
      },
      "renounceOwnership()": {
        "details": "Leaves the contract without owner. It will not be possible to call `onlyOwner` functions anymore. Can only be called by the current owner. NOTE: Renouncing ownership will leave the contract without an owner, thereby removing any functionality that is only available to the owner."
      },
      "safeTransferFrom(address,address,uint256)": {
        "details": "See {IERC721-safeTransferFrom}."
      },
      "safeTransferFrom(address,address,uint256,bytes)": {
        "details": "See {IERC721-safeTransferFrom}."
      },
      "setApprovalForAll(address,bool)": {
        "details": "See {IERC721-setApprovalForAll}."
      },
      "supportsInterface(bytes4)": {
        "details": "See {IERC165-supportsInterface}."
      },
      "symbol()": {
        "details": "See {IERC721Metadata-symbol}."
      },
      "tokenByIndex(uint256)": {
        "details": "See {IERC721Enumerable-tokenByIndex}."
      },
      "tokenOfOwnerByIndex(address,uint256)": {
        "details": "See {IERC721Enumerable-tokenOfOwnerByIndex}."
      },
      "tokenURI(uint256)": {
        "details": "See {IERC721Metadata-tokenURI}."
      },
      "totalSupply()": {
        "details": "See {IERC721Enumerable-totalSupply}."
      },
      "transferFrom(address,address,uint256)": {
        "details": "See {IERC721-transferFrom}."
      },
      "transferOwnership(address)": {
        "details": "Transfers ownership of the contract to a new account (`newOwner`). Can only be called by the current owner."
      }
    },
    "version": 1
  },
  "userdoc": {
    "kind": "user",
    "methods": {},
    "version": 1
  }
}